{
    "contractName": "LimitTradeHandler",
    "abi": [
        {
            "inputs": [],
            "stateMutability": "nonpayable",
            "type": "constructor"
        },
        {
            "inputs": [],
            "name": "ILimitTradeHandler_BadSubAccountId",
            "type": "error"
        },
        {
            "inputs": [],
            "name": "ILimitTradeHandler_IncorrectValueTransfer",
            "type": "error"
        },
        {
            "inputs": [],
            "name": "ILimitTradeHandler_InsufficientExecutionFee",
            "type": "error"
        },
        {
            "inputs": [],
            "name": "ILimitTradeHandler_InvalidAddress",
            "type": "error"
        },
        {
            "inputs": [],
            "name": "ILimitTradeHandler_InvalidPriceForExecution",
            "type": "error"
        },
        {
            "inputs": [],
            "name": "ILimitTradeHandler_InvalidSender",
            "type": "error"
        },
        {
            "inputs": [],
            "name": "ILimitTradeHandler_MarketIsClosed",
            "type": "error"
        },
        {
            "inputs": [],
            "name": "ILimitTradeHandler_MaxExecutionFee",
            "type": "error"
        },
        {
            "inputs": [],
            "name": "ILimitTradeHandler_NonExistentOrder",
            "type": "error"
        },
        {
            "inputs": [],
            "name": "ILimitTradeHandler_NotWhitelisted",
            "type": "error"
        },
        {
            "inputs": [],
            "name": "ILimitTradeHandler_TriggerPriceAboveCurrentPrice",
            "type": "error"
        },
        {
            "inputs": [],
            "name": "ILimitTradeHandler_TriggerPriceBelowCurrentPrice",
            "type": "error"
        },
        {
            "inputs": [],
            "name": "ILimitTradeHandler_UnknownOrderType",
            "type": "error"
        },
        {
            "inputs": [],
            "name": "ILimitTradeHandler_WrongSizeDelta",
            "type": "error"
        },
        {
            "anonymous": false,
            "inputs": [
                {
                    "indexed": false,
                    "internalType": "uint8",
                    "name": "version",
                    "type": "uint8"
                }
            ],
            "name": "Initialized",
            "type": "event"
        },
        {
            "anonymous": false,
            "inputs": [
                {
                    "indexed": true,
                    "internalType": "address",
                    "name": "account",
                    "type": "address"
                },
                {
                    "indexed": true,
                    "internalType": "uint256",
                    "name": "subAccountId",
                    "type": "uint256"
                },
                {
                    "indexed": false,
                    "internalType": "uint256",
                    "name": "orderIndex",
                    "type": "uint256"
                },
                {
                    "indexed": false,
                    "internalType": "uint256",
                    "name": "marketIndex",
                    "type": "uint256"
                },
                {
                    "indexed": false,
                    "internalType": "int256",
                    "name": "sizeDelta",
                    "type": "int256"
                },
                {
                    "indexed": false,
                    "internalType": "uint256",
                    "name": "triggerPrice",
                    "type": "uint256"
                },
                {
                    "indexed": false,
                    "internalType": "bool",
                    "name": "triggerAboveThreshold",
                    "type": "bool"
                },
                {
                    "indexed": false,
                    "internalType": "uint256",
                    "name": "executionFee",
                    "type": "uint256"
                },
                {
                    "indexed": false,
                    "internalType": "bool",
                    "name": "reduceOnly",
                    "type": "bool"
                },
                {
                    "indexed": false,
                    "internalType": "address",
                    "name": "tpToken",
                    "type": "address"
                }
            ],
            "name": "LogCancelLimitOrder",
            "type": "event"
        },
        {
            "anonymous": false,
            "inputs": [
                {
                    "indexed": true,
                    "internalType": "address",
                    "name": "account",
                    "type": "address"
                },
                {
                    "indexed": true,
                    "internalType": "uint256",
                    "name": "subAccountId",
                    "type": "uint256"
                },
                {
                    "indexed": false,
                    "internalType": "uint256",
                    "name": "orderIndex",
                    "type": "uint256"
                },
                {
                    "indexed": false,
                    "internalType": "uint256",
                    "name": "marketIndex",
                    "type": "uint256"
                },
                {
                    "indexed": false,
                    "internalType": "int256",
                    "name": "sizeDelta",
                    "type": "int256"
                },
                {
                    "indexed": false,
                    "internalType": "uint256",
                    "name": "triggerPrice",
                    "type": "uint256"
                },
                {
                    "indexed": false,
                    "internalType": "uint256",
                    "name": "acceptablePrice",
                    "type": "uint256"
                },
                {
                    "indexed": false,
                    "internalType": "bool",
                    "name": "triggerAboveThreshold",
                    "type": "bool"
                },
                {
                    "indexed": false,
                    "internalType": "uint256",
                    "name": "executionFee",
                    "type": "uint256"
                },
                {
                    "indexed": false,
                    "internalType": "bool",
                    "name": "reduceOnly",
                    "type": "bool"
                },
                {
                    "indexed": false,
                    "internalType": "address",
                    "name": "tpToken",
                    "type": "address"
                }
            ],
            "name": "LogCreateLimitOrder",
            "type": "event"
        },
        {
            "anonymous": false,
            "inputs": [
                {
                    "indexed": true,
                    "internalType": "address",
                    "name": "account",
                    "type": "address"
                },
                {
                    "indexed": true,
                    "internalType": "uint256",
                    "name": "subAccountId",
                    "type": "uint256"
                },
                {
                    "indexed": false,
                    "internalType": "uint256",
                    "name": "orderIndex",
                    "type": "uint256"
                },
                {
                    "indexed": false,
                    "internalType": "uint256",
                    "name": "marketIndex",
                    "type": "uint256"
                },
                {
                    "indexed": false,
                    "internalType": "int256",
                    "name": "sizeDelta",
                    "type": "int256"
                },
                {
                    "indexed": false,
                    "internalType": "uint256",
                    "name": "triggerPrice",
                    "type": "uint256"
                },
                {
                    "indexed": false,
                    "internalType": "bool",
                    "name": "triggerAboveThreshold",
                    "type": "bool"
                },
                {
                    "indexed": false,
                    "internalType": "uint256",
                    "name": "executionFee",
                    "type": "uint256"
                },
                {
                    "indexed": false,
                    "internalType": "uint256",
                    "name": "executionPrice",
                    "type": "uint256"
                },
                {
                    "indexed": false,
                    "internalType": "bool",
                    "name": "reduceOnly",
                    "type": "bool"
                },
                {
                    "indexed": false,
                    "internalType": "address",
                    "name": "tpToken",
                    "type": "address"
                }
            ],
            "name": "LogExecuteLimitOrder",
            "type": "event"
        },
        {
            "anonymous": false,
            "inputs": [
                {
                    "indexed": false,
                    "internalType": "uint256",
                    "name": "oldValue",
                    "type": "uint256"
                },
                {
                    "indexed": false,
                    "internalType": "uint256",
                    "name": "newValue",
                    "type": "uint256"
                }
            ],
            "name": "LogSetMinExecutionFee",
            "type": "event"
        },
        {
            "anonymous": false,
            "inputs": [
                {
                    "indexed": false,
                    "internalType": "address",
                    "name": "executor",
                    "type": "address"
                },
                {
                    "indexed": false,
                    "internalType": "bool",
                    "name": "isAllow",
                    "type": "bool"
                }
            ],
            "name": "LogSetOrderExecutor",
            "type": "event"
        },
        {
            "anonymous": false,
            "inputs": [
                {
                    "indexed": false,
                    "internalType": "address",
                    "name": "oldValue",
                    "type": "address"
                },
                {
                    "indexed": false,
                    "internalType": "address",
                    "name": "newValue",
                    "type": "address"
                }
            ],
            "name": "LogSetPyth",
            "type": "event"
        },
        {
            "anonymous": false,
            "inputs": [
                {
                    "indexed": false,
                    "internalType": "address",
                    "name": "oldValue",
                    "type": "address"
                },
                {
                    "indexed": false,
                    "internalType": "address",
                    "name": "newValue",
                    "type": "address"
                }
            ],
            "name": "LogSetTradeService",
            "type": "event"
        },
        {
            "anonymous": false,
            "inputs": [
                {
                    "indexed": true,
                    "internalType": "address",
                    "name": "account",
                    "type": "address"
                },
                {
                    "indexed": true,
                    "internalType": "uint256",
                    "name": "subAccountId",
                    "type": "uint256"
                },
                {
                    "indexed": false,
                    "internalType": "uint256",
                    "name": "orderIndex",
                    "type": "uint256"
                },
                {
                    "indexed": false,
                    "internalType": "int256",
                    "name": "sizeDelta",
                    "type": "int256"
                },
                {
                    "indexed": false,
                    "internalType": "uint256",
                    "name": "triggerPrice",
                    "type": "uint256"
                },
                {
                    "indexed": false,
                    "internalType": "bool",
                    "name": "triggerAboveThreshold",
                    "type": "bool"
                },
                {
                    "indexed": false,
                    "internalType": "bool",
                    "name": "reduceOnly",
                    "type": "bool"
                },
                {
                    "indexed": false,
                    "internalType": "address",
                    "name": "tpToken",
                    "type": "address"
                }
            ],
            "name": "LogUpdateLimitOrder",
            "type": "event"
        },
        {
            "anonymous": false,
            "inputs": [
                {
                    "indexed": true,
                    "internalType": "address",
                    "name": "previousOwner",
                    "type": "address"
                },
                {
                    "indexed": true,
                    "internalType": "address",
                    "name": "newOwner",
                    "type": "address"
                }
            ],
            "name": "OwnershipTransferred",
            "type": "event"
        },
        {
            "inputs": [
                {
                    "internalType": "uint8",
                    "name": "_subAccountId",
                    "type": "uint8"
                },
                {
                    "internalType": "uint256",
                    "name": "_orderIndex",
                    "type": "uint256"
                }
            ],
            "name": "cancelOrder",
            "outputs": [],
            "stateMutability": "nonpayable",
            "type": "function"
        },
        {
            "inputs": [
                {
                    "internalType": "uint8",
                    "name": "_subAccountId",
                    "type": "uint8"
                },
                {
                    "internalType": "uint256",
                    "name": "_marketIndex",
                    "type": "uint256"
                },
                {
                    "internalType": "int256",
                    "name": "_sizeDelta",
                    "type": "int256"
                },
                {
                    "internalType": "uint256",
                    "name": "_triggerPrice",
                    "type": "uint256"
                },
                {
                    "internalType": "uint256",
                    "name": "_acceptablePrice",
                    "type": "uint256"
                },
                {
                    "internalType": "bool",
                    "name": "_triggerAboveThreshold",
                    "type": "bool"
                },
                {
                    "internalType": "uint256",
                    "name": "_executionFee",
                    "type": "uint256"
                },
                {
                    "internalType": "bool",
                    "name": "_reduceOnly",
                    "type": "bool"
                },
                {
                    "internalType": "address",
                    "name": "_tpToken",
                    "type": "address"
                }
            ],
            "name": "createOrder",
            "outputs": [],
            "stateMutability": "payable",
            "type": "function"
        },
        {
            "inputs": [
                {
                    "internalType": "address",
                    "name": "_account",
                    "type": "address"
                },
                {
                    "internalType": "uint8",
                    "name": "_subAccountId",
                    "type": "uint8"
                },
                {
                    "internalType": "uint256",
                    "name": "_orderIndex",
                    "type": "uint256"
                },
                {
                    "internalType": "address payable",
                    "name": "_feeReceiver",
                    "type": "address"
                },
                {
                    "internalType": "bytes32[]",
                    "name": "_priceData",
                    "type": "bytes32[]"
                },
                {
                    "internalType": "bytes32[]",
                    "name": "_publishTimeData",
                    "type": "bytes32[]"
                },
                {
                    "internalType": "uint256",
                    "name": "_minPublishTime",
                    "type": "uint256"
                },
                {
                    "internalType": "bytes32",
                    "name": "_encodedVaas",
                    "type": "bytes32"
                }
            ],
            "name": "executeOrder",
            "outputs": [],
            "stateMutability": "nonpayable",
            "type": "function"
        },
        {
            "inputs": [
                {
                    "internalType": "address",
                    "name": "_weth",
                    "type": "address"
                },
                {
                    "internalType": "address",
                    "name": "_tradeService",
                    "type": "address"
                },
                {
                    "internalType": "address",
                    "name": "_pyth",
                    "type": "address"
                },
                {
                    "internalType": "uint256",
                    "name": "_minExecutionFee",
                    "type": "uint256"
                }
            ],
            "name": "initialize",
            "outputs": [],
            "stateMutability": "nonpayable",
            "type": "function"
        },
        {
            "inputs": [],
            "name": "isAllowAllExecutor",
            "outputs": [
                {
                    "internalType": "bool",
                    "name": "",
                    "type": "bool"
                }
            ],
            "stateMutability": "view",
            "type": "function"
        },
        {
            "inputs": [
                {
                    "internalType": "address",
                    "name": "",
                    "type": "address"
                },
                {
                    "internalType": "uint256",
                    "name": "",
                    "type": "uint256"
                }
            ],
            "name": "limitOrders",
            "outputs": [
                {
                    "internalType": "address",
                    "name": "account",
                    "type": "address"
                },
                {
                    "internalType": "address",
                    "name": "tpToken",
                    "type": "address"
                },
                {
                    "internalType": "bool",
                    "name": "triggerAboveThreshold",
                    "type": "bool"
                },
                {
                    "internalType": "bool",
                    "name": "reduceOnly",
                    "type": "bool"
                },
                {
                    "internalType": "int256",
                    "name": "sizeDelta",
                    "type": "int256"
                },
                {
                    "internalType": "uint8",
                    "name": "subAccountId",
                    "type": "uint8"
                },
                {
                    "internalType": "uint256",
                    "name": "marketIndex",
                    "type": "uint256"
                },
                {
                    "internalType": "uint256",
                    "name": "triggerPrice",
                    "type": "uint256"
                },
                {
                    "internalType": "uint256",
                    "name": "acceptablePrice",
                    "type": "uint256"
                },
                {
                    "internalType": "uint256",
                    "name": "executionFee",
                    "type": "uint256"
                }
            ],
            "stateMutability": "view",
            "type": "function"
        },
        {
            "inputs": [
                {
                    "internalType": "address",
                    "name": "",
                    "type": "address"
                }
            ],
            "name": "limitOrdersIndex",
            "outputs": [
                {
                    "internalType": "uint256",
                    "name": "",
                    "type": "uint256"
                }
            ],
            "stateMutability": "view",
            "type": "function"
        },
        {
            "inputs": [],
            "name": "minExecutionFee",
            "outputs": [
                {
                    "internalType": "uint256",
                    "name": "",
                    "type": "uint256"
                }
            ],
            "stateMutability": "view",
            "type": "function"
        },
        {
            "inputs": [
                {
                    "internalType": "address",
                    "name": "",
                    "type": "address"
                }
            ],
            "name": "orderExecutors",
            "outputs": [
                {
                    "internalType": "bool",
                    "name": "",
                    "type": "bool"
                }
            ],
            "stateMutability": "view",
            "type": "function"
        },
        {
            "inputs": [],
            "name": "owner",
            "outputs": [
                {
                    "internalType": "address",
                    "name": "",
                    "type": "address"
                }
            ],
            "stateMutability": "view",
            "type": "function"
        },
        {
            "inputs": [],
            "name": "pyth",
            "outputs": [
                {
                    "internalType": "contract IEcoPyth",
                    "name": "",
                    "type": "address"
                }
            ],
            "stateMutability": "view",
            "type": "function"
        },
        {
            "inputs": [],
            "name": "renounceOwnership",
            "outputs": [],
            "stateMutability": "nonpayable",
            "type": "function"
        },
        {
            "inputs": [
                {
                    "internalType": "uint256",
                    "name": "_newMinExecutionFee",
                    "type": "uint256"
                }
            ],
            "name": "setMinExecutionFee",
            "outputs": [],
            "stateMutability": "nonpayable",
            "type": "function"
        },
        {
            "inputs": [
                {
                    "internalType": "address",
                    "name": "_executor",
                    "type": "address"
                },
                {
                    "internalType": "bool",
                    "name": "_isAllow",
                    "type": "bool"
                }
            ],
            "name": "setOrderExecutor",
            "outputs": [],
            "stateMutability": "nonpayable",
            "type": "function"
        },
        {
            "inputs": [
                {
                    "internalType": "address",
                    "name": "_newPyth",
                    "type": "address"
                }
            ],
            "name": "setPyth",
            "outputs": [],
            "stateMutability": "nonpayable",
            "type": "function"
        },
        {
            "inputs": [
                {
                    "internalType": "address",
                    "name": "_newTradeService",
                    "type": "address"
                }
            ],
            "name": "setTradeService",
            "outputs": [],
            "stateMutability": "nonpayable",
            "type": "function"
        },
        {
            "inputs": [],
            "name": "tradeService",
            "outputs": [
                {
                    "internalType": "address",
                    "name": "",
                    "type": "address"
                }
            ],
            "stateMutability": "view",
            "type": "function"
        },
        {
            "inputs": [
                {
                    "internalType": "address",
                    "name": "newOwner",
                    "type": "address"
                }
            ],
            "name": "transferOwnership",
            "outputs": [],
            "stateMutability": "nonpayable",
            "type": "function"
        },
        {
            "inputs": [
                {
                    "internalType": "uint8",
                    "name": "_subAccountId",
                    "type": "uint8"
                },
                {
                    "internalType": "uint256",
                    "name": "_orderIndex",
                    "type": "uint256"
                },
                {
                    "internalType": "int256",
                    "name": "_sizeDelta",
                    "type": "int256"
                },
                {
                    "internalType": "uint256",
                    "name": "_triggerPrice",
                    "type": "uint256"
                },
                {
                    "internalType": "bool",
                    "name": "_triggerAboveThreshold",
                    "type": "bool"
                },
                {
                    "internalType": "bool",
                    "name": "_reduceOnly",
                    "type": "bool"
                },
                {
                    "internalType": "address",
                    "name": "_tpToken",
                    "type": "address"
                }
            ],
            "name": "updateOrder",
            "outputs": [],
            "stateMutability": "nonpayable",
            "type": "function"
        },
        {
            "inputs": [],
            "name": "weth",
            "outputs": [
                {
                    "internalType": "address",
                    "name": "",
                    "type": "address"
                }
            ],
            "stateMutability": "view",
            "type": "function"
        },
        {
            "stateMutability": "payable",
            "type": "receive"
        }
    ],
    "bytecode": "60806040523480156200001157600080fd5b506200001c62000022565b620000e4565b600054610100900460ff16156200008f5760405162461bcd60e51b815260206004820152602760248201527f496e697469616c697a61626c653a20636f6e747261637420697320696e697469604482015266616c697a696e6760c81b606482015260840160405180910390fd5b60005460ff9081161015620000e2576000805460ff191660ff9081179091556040519081527f7f26b83ff96e1f2b6a682f133852f6798a09c465da95921460cefb38474024989060200160405180910390a15b565b6131dd80620000f46000396000f3fe6080604052600436106101235760003560e01c80638da5cb5b116100a0578063d1d91a3811610064578063d1d91a381461042e578063ee22fd6f1461044e578063f2fde38b1461046e578063f98d06f01461048e578063fc2cee62146104ae57600080fd5b80638da5cb5b146103a3578063a567d8e2146103c1578063ad378c68146103db578063c18d40ce146103fb578063cf756fdf1461040e57600080fd5b80633fc8cef3116100e75780633fc8cef3146102e557806363ae21031461031d578063715018a614610341578063866d8f431461035657806389678bed1461038357600080fd5b8063042a40831461015a5780630f1088621461017a578063265e283e146101bf5780632bca0e6a146101df57806330d8304e146102c557600080fd5b36610155576097546001600160a01b0316331461015357604051635eb9360b60e01b815260040160405180910390fd5b005b600080fd5b34801561016657600080fd5b50610153610175366004612907565b6104ce565b34801561018657600080fd5b506101aa610195366004612940565b609c6020526000908152604090205460ff1681565b60405190151581526020015b60405180910390f35b3480156101cb57600080fd5b506101536101da366004612a6b565b610539565b3480156101eb57600080fd5b506102676101fa366004612b24565b609d602090815260009283526040808420909152908252902080546001820154600283015460038401546004850154600586015460068701546007909701546001600160a01b03968716979686169660ff600160a01b8804811697600160a81b900481169695169392918a565b604080516001600160a01b039b8c1681529a90991660208b0152961515978901979097529315156060880152608087019290925260ff1660a086015260c085015260e0840152610100830191909152610120820152610140016101b6565b3480156102d157600080fd5b506101536102e0366004612940565b611059565b3480156102f157600080fd5b50609754610305906001600160a01b031681565b6040516001600160a01b0390911681526020016101b6565b34801561032957600080fd5b50610333609a5481565b6040519081526020016101b6565b34801561034d57600080fd5b50610153611154565b34801561036257600080fd5b50610333610371366004612940565b609e6020526000908152604090205481565b34801561038f57600080fd5b5061015361039e366004612b50565b611168565b3480156103af57600080fd5b506033546001600160a01b0316610305565b3480156103cd57600080fd5b50609b546101aa9060ff1681565b3480156103e757600080fd5b506101536103f6366004612bcb565b611334565b610153610409366004612be9565b611557565b34801561041a57600080fd5b50610153610429366004612c78565b61185a565b34801561043a57600080fd5b50609854610305906001600160a01b031681565b34801561045a57600080fd5b50610153610469366004612940565b611a55565b34801561047a57600080fd5b50610153610489366004612940565b611aed565b34801561049a57600080fd5b50609954610305906001600160a01b031681565b3480156104ba57600080fd5b506101536104c9366004612cc9565b611b66565b6104d6611bd7565b6001600160a01b0382166000818152609c6020908152604091829020805460ff19168515159081179091558251938452908301527f0fa0f88ea14998d9edad4236887127c5ba602446e256db317319795bc4a5258f910160405180910390a15050565b610541611c31565b609b5460ff161580156105645750336000908152609c602052604090205460ff16155b156105825760405163c8bceb7560e01b815260040160405180910390fd5b61058a61277f565b6105948989611c8a565b81602001906001600160a01b031690816001600160a01b031681525050609d600082602001516001600160a01b03166001600160a01b031681526020019081526020016000206000888152602001908152602001600020604051806101400160405290816000820160009054906101000a90046001600160a01b03166001600160a01b03166001600160a01b031681526020016001820160009054906101000a90046001600160a01b03166001600160a01b03166001600160a01b031681526020016001820160149054906101000a900460ff161515151581526020016001820160159054906101000a900460ff16151515158152602001600282015481526020016003820160009054906101000a900460ff1660ff1660ff1681526020016004820154815260200160058201548152602001600682015481526020016007820154815250508160000181905250609d600082602001516001600160a01b03166001600160a01b031681526020019081526020016000206000888152602001908152602001600020600080820160006101000a8154906001600160a01b0302191690556001820160006101000a8154906001600160a01b0302191690556001820160146101000a81549060ff02191690556001820160156101000a81549060ff021916905560028201600090556003820160006101000a81549060ff02191690556004820160009055600582016000905560068201600090556007820160009055505060006001600160a01b03168160000151600001516001600160a01b0316036107f257604051635dfb3d3960e11b815260040160405180910390fd5b609954604051633969cd1760e21b81526001600160a01b039091169063e5a7345c90610828908890889088908890600401612d1d565b600060405180830381600087803b15801561084257600080fd5b505af1158015610856573d6000803e3d6000fd5b50508251604081015160e082015161010083015160c08401516080909401516000965061088f9550929391929091908681136001611cbf565b50602083810151845160c001516040805160609390931b6bffffffffffffffffffffffff1916838501526034808401929092528051808403909201825260549092018252805190830120818601526098548151631386c01b60e21b815291519394506000936001600160a01b0390911692634e1b006c92600480820193918290030181865afa158015610926573d6000803e3d6000fd5b505050506040513d601f19601f8201168201806040525081019061094a9190612d66565b6001600160a01b031663dc56325384604001516040518263ffffffff1660e01b815260040161097b91815260200190565b61014060405180830381865afa158015610999573d6000803e3d6000fd5b505050506040513d601f19601f820116820180604052508101906109bd9190612d8e565b60c08101805160009081126060870152905115608080870191909152855101519192501215610cbc578260800151806109f7575082606001515b15610a9457609860009054906101000a90046001600160a01b03166001600160a01b0316636544e5ab8c8c866000015160c00151876000015160800151886000015160e001516040518663ffffffff1660e01b8152600401610a5d959493929190612e1f565b600060405180830381600087803b158015610a7757600080fd5b505af1158015610a8b573d6000803e3d6000fd5b50505050610f5e565b8260600151610cb757825160600151600090158015610ac457508160c00151610abc90612e66565b845160800151135b90508015610c0457609854845160c090810151908401516001600160a01b03909216916363685a2d918f918f9190610afb90612e66565b8951602081015160e0918201516040519288901b6001600160e01b0319168352610b2b9695949392600401612e82565b600060405180830381600087803b158015610b4557600080fd5b505af1158015610b59573d6000803e3d6000fd5b50505050609860009054906101000a90046001600160a01b03166001600160a01b0316636544e5ab8d8d876000015160c001518660c00151896000015160800151610ba49190612ec0565b896000015160e001516040518663ffffffff1660e01b8152600401610bcd959493929190612e1f565b600060405180830381600087803b158015610be757600080fd5b505af1158015610bfb573d6000803e3d6000fd5b50505050610cb5565b609860009054906101000a90046001600160a01b03166001600160a01b03166363685a2d8d8d876000015160c00151610c528960000151608001518860c00151610c4d90612e66565b61219b565b8951602081015160e0918201516040519288901b6001600160e01b0319168352610c829695949392600401612e82565b600060405180830381600087803b158015610c9c57600080fd5b505af1158015610cb0573d6000803e3d6000fd5b505050505b505b610f5e565b82516080015160001315610f5e57826080015180610cdc57508260600151155b15610d4257609860009054906101000a90046001600160a01b03166001600160a01b0316636544e5ab8c8c866000015160c00151876000015160800151886000015160e001516040518663ffffffff1660e01b8152600401610a5d959493929190612e1f565b826060015115610f5e57825160600151600090158015610d73575060c0820151845160800151610d7190612e66565b135b90508015610ebb57609860009054906101000a90046001600160a01b03166001600160a01b03166363685a2d8d8d876000015160c001518660c001518960000151602001518a6000015160e001516040518763ffffffff1660e01b8152600401610de296959493929190612e82565b600060405180830381600087803b158015610dfc57600080fd5b505af1158015610e10573d6000803e3d6000fd5b50505050609860009054906101000a90046001600160a01b03166001600160a01b0316636544e5ab8d8d876000015160c001518660c00151896000015160800151610e5b9190612ec0565b896000015160e001516040518663ffffffff1660e01b8152600401610e84959493929190612e1f565b600060405180830381600087803b158015610e9e57600080fd5b505af1158015610eb2573d6000803e3d6000fd5b50505050610f5c565b609854845160c08101516080909101516001600160a01b03909216916363685a2d918f918f9190610ef990610eef90612e66565b8860c0015161219b565b8951602081015160e0918201516040519288901b6001600160e01b0319168352610f299695949392600401612e82565b600060405180830381600087803b158015610f4357600080fd5b505af1158015610f57573d6000803e3d6000fd5b505050505b505b82516101200151610f6f90896121b3565b8960ff168b6001600160a01b03167f9b173ec75c1630d52fcc0b1815a3e0e21b16eaf5fc3033e6a3d80f241117b4238b866000015160c00151876000015160800151886000015160e001518960000151604001518a6000015161012001518a8c60000151606001518d600001516020015160405161103a99989796959493929190988952602089019790975260408801959095526060870193909352901515608086015260a085015260c0840152151560e08301526001600160a01b03166101008201526101200190565b60405180910390a350505061104f6001606555565b5050505050505050565b611061611bd7565b6001600160a01b038116611088576040516331ce033d60e21b815260040160405180910390fd5b806001600160a01b0316634e1b006c6040518163ffffffff1660e01b8152600401602060405180830381865afa1580156110c6573d6000803e3d6000fd5b505050506040513d601f19601f820116820180604052508101906110ea9190612d66565b50609854604080516001600160a01b03928316815291831660208301527f7622ef3f8c86f648ae6418ba984b7bd400251488844d1a13c2e44f0ba8a76873910160405180910390a1609880546001600160a01b0319166001600160a01b0392909216919091179055565b61115c611bd7565b6111666000612253565b565b611170611c31565b600061117c3389611c8a565b6001600160a01b038082166000908152609d602090815260408083208c84529091529020805492935091166111c457604051635dfb3d3960e11b815260040160405180910390fd5b858160050181905550848160010160146101000a81548160ff021916908315150217905550868160020181905550838160010160156101000a81548160ff021916908315150217905550828160010160006101000a8154816001600160a01b0302191690836001600160a01b031602179055508060030160009054906101000a900460ff1660ff168160000160009054906101000a90046001600160a01b03166001600160a01b03167f4a1bc9afaba1a0b6abbf3e765bf98e50fd8ce188eb17ea02b839de70654c453a8a846002015485600501548660010160149054906101000a900460ff168760010160159054906101000a900460ff168860010160009054906101000a90046001600160a01b0316604051611317969594939291909586526020860194909452604085019290925215156060840152151560808301526001600160a01b031660a082015260c00190565b60405180910390a3505061132b6001606555565b50505050505050565b61133c611c31565b60006113483384611c8a565b6001600160a01b038082166000908152609d602090815260408083208784528252918290208251610140810184528154851680825260018301549586169382019390935260ff600160a01b86048116151594820194909452600160a81b90940483161515606085015260028101546080850152600381015490921660a0840152600482015460c0840152600582015460e084015260068201546101008401526007909101546101208301529192509061141457604051635dfb3d3960e11b815260040160405180910390fd5b6001600160a01b0382166000908152609d60209081526040808320868452909152812080546001600160a01b03191681556001810180546001600160b01b03191690556002810182905560038101805460ff1916905560048101829055600581018290556006810182905560070155610120810151815161149591906121b3565b8360ff1681600001516001600160a01b03167fff77afd3dad28d713cfad04b3de19885ab4fccc44175fc7e8bc084fa7dcfa20b858460c0015185608001518660e00151876040015188610120015189606001518a6020015160405161153f9897969594939291909788526020880196909652604087019490945260608601929092521515608085015260a0840152151560c08301526001600160a01b031660e08201526101000190565b60405180910390a350506115536001606555565b5050565b61155f611c31565b609a5483101561158257604051630e6b946160e01b815260040160405180910390fd5b8234146115a25760405163d4f21ff760e01b815260040160405180910390fd5b6115b284878a8a60008c136122a5565b6115ba612666565b60006115c6338b611c8a565b6001600160a01b038082166000908152609e6020908152604080832054815161014081018352338152948816928501929092529394509290919081018a1561160e5788611611565b60015b1515815260200186151581526020018b81526020018d60ff1681526020018c81526020018a81526020018981526020018781525090508160016116549190612ee8565b609e6000856001600160a01b03166001600160a01b031681526020019081526020016000208190555080609d6000856001600160a01b03166001600160a01b03168152602001908152602001600020600084815260200190815260200160002060008201518160000160006101000a8154816001600160a01b0302191690836001600160a01b0316021790555060208201518160010160006101000a8154816001600160a01b0302191690836001600160a01b0316021790555060408201518160010160146101000a81548160ff02191690831515021790555060608201518160010160156101000a81548160ff0219169083151502179055506080820151816002015560a08201518160030160006101000a81548160ff021916908360ff16021790555060c0820151816004015560e08201518160050155610100820151816006015561012082015181600701559050508b60ff16336001600160a01b03167fec5ebff99113c3498cb0adf947af2edd9d488ec51167547e14f9967fb9230d3f848e8e8e8e8e8e8e8e60405161183a999897969594939291909889526020890197909752604088019590955260608701939093526080860191909152151560a085015260c0840152151560e08301526001600160a01b03166101008201526101200190565b60405180910390a350505061184f6001606555565b505050505050505050565b600054610100900460ff161580801561187a5750600054600160ff909116105b806118945750303b158015611894575060005460ff166001145b6118fc5760405162461bcd60e51b815260206004820152602e60248201527f496e697469616c697a61626c653a20636f6e747261637420697320616c72656160448201526d191e481a5b9a5d1a585b1a5e995960921b60648201526084015b60405180910390fd5b6000805460ff19166001179055801561191f576000805461ff0019166101001790555b6119276126ca565b61192f6126f9565b609780546001600160a01b038088166001600160a01b031992831617909255609880548784169083161790556099805492861692909116919091179055609b805460ff19169055674563918244f4000082111561199e5760405162677f9560e01b815260040160405180910390fd5b81609a81905550836001600160a01b0316634e1b006c6040518163ffffffff1660e01b8152600401602060405180830381865afa1580156119e3573d6000803e3d6000fd5b505050506040513d601f19601f82011682018060405250810190611a079190612d66565b508015611a4e576000805461ff0019169055604051600181527f7f26b83ff96e1f2b6a682f133852f6798a09c465da95921460cefb38474024989060200160405180910390a15b5050505050565b611a5d611bd7565b6001600160a01b038116611a84576040516331ce033d60e21b815260040160405180910390fd5b609854604080516001600160a01b03928316815291831660208301527f63994d6471b1b5b89403db00ddddc3b3dcafb0f8f2b8e0540a22093c4a3154d5910160405180910390a1609980546001600160a01b0319166001600160a01b0392909216919091179055565b611af5611bd7565b6001600160a01b038116611b5a5760405162461bcd60e51b815260206004820152602660248201527f4f776e61626c653a206e6577206f776e657220697320746865207a65726f206160448201526564647265737360d01b60648201526084016118f3565b611b6381612253565b50565b611b6e611bd7565b674563918244f40000811115611b965760405162677f9560e01b815260040160405180910390fd5b609a5460408051918252602082018390527f58242c0b8ca9f907fac497175f9b977e74b86fc0c2962a50f3bc68fdee8a4db3910160405180910390a1609a55565b6033546001600160a01b031633146111665760405162461bcd60e51b815260206004820181905260248201527f4f776e61626c653a2063616c6c6572206973206e6f7420746865206f776e657260448201526064016118f3565b600260655403611c835760405162461bcd60e51b815260206004820152601f60248201527f5265656e7472616e637947756172643a207265656e7472616e742063616c6c0060448201526064016118f3565b6002606555565b600060ff8260ff161115611cb15760405163fa1f776f60e01b815260040160405180910390fd5b5060ff811682185b92915050565b600080611cca612800565b609860009054906101000a90046001600160a01b03166001600160a01b031663443b17866040518163ffffffff1660e01b8152600401602060405180830381865afa158015611d1d573d6000803e3d6000fd5b505050506040513d601f19601f82011682018060405250810190611d419190612d66565b6001600160a01b03166393e93409886040518263ffffffff1660e01b8152600401611d6e91815260200190565b6101c060405180830381865afa158015611d8c573d6000803e3d6000fd5b505050506040513d601f19601f82011682018060405250810190611db09190612f69565b81526098546040805163221d8bc360e11b815290516001600160a01b039092169163443b1786916004808201926020929091908290030181865afa158015611dfc573d6000803e3d6000fd5b505050506040513d601f19601f82011682018060405250810190611e209190612d66565b6001600160a01b0316637dc0d1d06040518163ffffffff1660e01b8152600401602060405180830381865afa158015611e5d573d6000803e3d6000fd5b505050506040513d601f19601f82011682018060405250810190611e819190612d66565b6001600160a01b0390811660208084019190915260985460408051631386c01b60e21b815290519190931692634e1b006c9260048083019391928290030181865afa158015611ed4573d6000803e3d6000fd5b505050506040513d601f19601f82011682018060405250810190611ef89190612d66565b6001600160a01b031663af4b9d3d886040518263ffffffff1660e01b8152600401611f2591815260200190565b61010060405180830381865afa158015611f43573d6000803e3d6000fd5b505050506040513d601f19601f82011682018060405250810190611f679190613048565b6040828101919091526020820151825151915163129928d560e31b81526004810192909252600160248301526001600160a01b0316906394c946a8906044016040805180830381865afa158015611fc2573d6000803e3d6000fd5b505050506040513d601f19601f82011682018060405250810190611fe691906130d8565b50606082015289611ffd5788816060015110612005565b888160600151115b151560c08201528315612034578060c001516120345760405163e8f8320760e01b815260040160405180910390fd5b60208101518151516040808401519081015190516001600160a01b039093169263a44865999291899161206791906130fc565b85516101800151516040516001600160e01b031960e087901b168152600481019490945291151560248401526044830152606482018a9052608482015260a481018c905260c401606060405180830381865afa1580156120cb573d6000803e3d6000fd5b505050506040513d601f19601f820116820180604052508101906120ef9190613123565b60ff1660a0840181905260808401929092525060021461213757831561212857604051635d4d150160e11b815260040160405180910390fd5b6080015191506000905061218f565b896121485787816080015111612150565b878160800151105b151560c0820152831561217f578060c0015161217f5760405163e8f8320760e01b815260040160405180910390fd5b80608001518160c0015192509250505b97509795505050505050565b60008183106121aa57816121ac565b825b9392505050565b609754604051632e1a7d4d60e01b8152600481018490526001600160a01b0390911690632e1a7d4d90602401600060405180830381600087803b1580156121f957600080fd5b505af115801561220d573d6000803e3d6000fd5b50506040516001600160a01b038416925084156108fc02915084906000818181858888f19350505050158015612247573d6000803e3d6000fd5b505050565b6001606555565b603380546001600160a01b038381166001600160a01b0319831681179093556040519116919082907f8be0079c531659141344cd1fd0a4f28419497f9722a3daafe3b4186f6b6457e090600090a35050565b6122ad612800565b609860009054906101000a90046001600160a01b03166001600160a01b031663443b17866040518163ffffffff1660e01b8152600401602060405180830381865afa158015612300573d6000803e3d6000fd5b505050506040513d601f19601f820116820180604052508101906123249190612d66565b6001600160a01b03166393e93409856040518263ffffffff1660e01b815260040161235191815260200190565b6101c060405180830381865afa15801561236f573d6000803e3d6000fd5b505050506040513d601f19601f820116820180604052508101906123939190612f69565b81526098546040805163221d8bc360e11b815290516001600160a01b039092169163443b1786916004808201926020929091908290030181865afa1580156123df573d6000803e3d6000fd5b505050506040513d601f19601f820116820180604052508101906124039190612d66565b6001600160a01b0316637dc0d1d06040518163ffffffff1660e01b8152600401602060405180830381865afa158015612440573d6000803e3d6000fd5b505050506040513d601f19601f820116820180604052508101906124649190612d66565b6001600160a01b0390811660208084019190915260985460408051631386c01b60e21b815290519190931692634e1b006c9260048083019391928290030181865afa1580156124b7573d6000803e3d6000fd5b505050506040513d601f19601f820116820180604052508101906124db9190612d66565b6001600160a01b031663af4b9d3d856040518263ffffffff1660e01b815260040161250891815260200190565b61010060405180830381865afa158015612526573d6000803e3d6000fd5b505050506040513d601f19601f8201168201806040525081019061254a9190613048565b604080830182905260208301518351519183015192516000936001600160a01b039092169263a44865999290918791612582916130fc565b865161018001515160405160e086901b6001600160e01b0319168152600481019490945291151560248401526044830152606482018890526084820152600060a482015260c401606060405180830381865afa1580156125e6573d6000803e3d6000fd5b505050506040513d601f19601f8201168201806040525081019061260a9190613123565b5050905086156126465785158015906126235750808611155b15612641576040516356293bcd60e11b815260040160405180910390fd5b61132b565b80861061132b576040516303a6724f60e11b815260040160405180910390fd5b609760009054906101000a90046001600160a01b03166001600160a01b031663d0e30db0346040518263ffffffff1660e01b81526004016000604051808303818588803b1580156126b657600080fd5b505af1158015611a4e573d6000803e3d6000fd5b600054610100900460ff166126f15760405162461bcd60e51b81526004016118f39061315c565b611166612728565b600054610100900460ff166127205760405162461bcd60e51b81526004016118f39061315c565b611166612758565b600054610100900460ff1661274f5760405162461bcd60e51b81526004016118f39061315c565b61116633612253565b600054610100900460ff1661224c5760405162461bcd60e51b81526004016118f39061315c565b604080516101e08101909152600060a0820181815260c0830182905260e08301829052610100830182905261012083018290526101408301829052610160830182905261018083018290526101a083018290526101c083019190915281905b8152600060208201819052604082018190526060820181905260809091015290565b6040518060e00160405280612887604080516101a08101825260008082526020808301829052828401829052606083018290526080830182905260a0830182905260c0830182905260e08301829052610100830182905261012083018290526101408301829052610160830182905283518085019094528184528301529061018082015290565b815260200160006001600160a01b031681526020016127de60405180610100016040528060008152602001600081526020016000815260200160008152602001600081526020016000815260200160008152602001600081525090565b6001600160a01b0381168114611b6357600080fd5b8015158114611b6357600080fd5b6000806040838503121561291a57600080fd5b8235612925816128e4565b91506020830135612935816128f9565b809150509250929050565b60006020828403121561295257600080fd5b81356121ac816128e4565b60ff81168114611b6357600080fd5b634e487b7160e01b600052604160045260246000fd5b604051610140810167ffffffffffffffff811182821017156129a6576129a661296c565b60405290565b6040516101a0810167ffffffffffffffff811182821017156129a6576129a661296c565b600082601f8301126129e157600080fd5b8135602067ffffffffffffffff808311156129fe576129fe61296c565b8260051b604051601f19603f83011681018181108482111715612a2357612a2361296c565b604052938452858101830193838101925087851115612a4157600080fd5b83870191505b84821015612a6057813583529183019190830190612a47565b979650505050505050565b600080600080600080600080610100898b031215612a8857600080fd5b8835612a93816128e4565b97506020890135612aa38161295d565b9650604089013595506060890135612aba816128e4565b9450608089013567ffffffffffffffff80821115612ad757600080fd5b612ae38c838d016129d0565b955060a08b0135915080821115612af957600080fd5b50612b068b828c016129d0565b93505060c0890135915060e089013590509295985092959890939650565b60008060408385031215612b3757600080fd5b8235612b42816128e4565b946020939093013593505050565b600080600080600080600060e0888a031215612b6b57600080fd5b8735612b768161295d565b96506020880135955060408801359450606088013593506080880135612b9b816128f9565b925060a0880135612bab816128f9565b915060c0880135612bbb816128e4565b8091505092959891949750929550565b60008060408385031215612bde57600080fd5b8235612b428161295d565b60008060008060008060008060006101208a8c031215612c0857600080fd5b8935612c138161295d565b985060208a0135975060408a0135965060608a0135955060808a0135945060a08a0135612c3f816128f9565b935060c08a0135925060e08a0135612c56816128f9565b91506101008a0135612c67816128e4565b809150509295985092959850929598565b60008060008060808587031215612c8e57600080fd5b8435612c99816128e4565b93506020850135612ca9816128e4565b92506040850135612cb9816128e4565b9396929550929360600135925050565b600060208284031215612cdb57600080fd5b5035919050565b600081518084526020808501945080840160005b83811015612d1257815187529582019590820190600101612cf6565b509495945050505050565b608081526000612d306080830187612ce2565b8281036020840152612d428187612ce2565b604084019590955250506060015292915050565b8051612d61816128e4565b919050565b600060208284031215612d7857600080fd5b81516121ac816128e4565b8051612d618161295d565b60006101408284031215612da157600080fd5b612da9612982565b612db283612d56565b81526020830151602082015260408301516040820152606083015160608201526080830151608082015260a083015160a082015260c083015160c082015260e083015160e0820152610100808401518183015250610120612e14818501612d83565b908201529392505050565b6001600160a01b0395909516855260ff93909316602085015260408401919091526060830152608082015260a00190565b634e487b7160e01b600052601160045260246000fd5b6000600160ff1b8201612e7b57612e7b612e50565b5060000390565b6001600160a01b03968716815260ff95909516602086015260408501939093526060840191909152909216608082015260a081019190915260c00190565b8082018281126000831280158216821582161715612ee057612ee0612e50565b505092915050565b80820180821115611cb957611cb9612e50565b805163ffffffff81168114612d6157600080fd5b8051612d61816128f9565b600060408284031215612f2c57600080fd5b6040516040810181811067ffffffffffffffff82111715612f4f57612f4f61296c565b604052825181526020928301519281019290925250919050565b60006101c08284031215612f7c57600080fd5b612f846129ac565b825181526020830151602082015260408301516040820152612fa860608401612efb565b6060820152612fb960808401612efb565b6080820152612fca60a08401612efb565b60a0820152612fdb60c08401612efb565b60c0820152612fec60e08401612efb565b60e0820152610100612fff818501612efb565b90820152610120613011848201612d83565b90820152610140613023848201612f0f565b90820152610160613035848201612f0f565b90820152610180612e1485858301612f1a565b600061010080838503121561305c57600080fd5b6040519081019067ffffffffffffffff8211818310171561307f5761307f61296c565b81604052835181526020840151602082015260408401516040820152606084015160608201526080840151608082015260a084015160a082015260c084015160c082015260e084015160e0820152809250505092915050565b600080604083850312156130eb57600080fd5b505080516020909101519092909150565b818103600083128015838313168383128216171561311c5761311c612e50565b5092915050565b60008060006060848603121561313857600080fd5b835192506020840151915060408401516131518161295d565b809150509250925092565b6020808252602b908201527f496e697469616c697a61626c653a20636f6e7472616374206973206e6f74206960408201526a6e697469616c697a696e6760a81b60608201526080019056fea2646970667358221220cc521c9439c48da3015748d9fc23dec91a27d95255634a15041d576876b7df1c64736f6c63430008120033",
    "sourcePath": "/Users/toey/Desktop/Perp/v2-evm/src/handlers/LimitTradeHandler.sol",
    "compiler": {
        "name": "solc",
        "version": "0.8.18+commit.87f61d96"
    },
    "functionHashes": {
        "cancelOrder(uint8,uint256)": "ad378c68",
        "createOrder(uint8,uint256,int256,uint256,uint256,bool,uint256,bool,address)": "c18d40ce",
        "executeOrder(address,uint8,uint256,address,bytes32[],bytes32[],uint256,bytes32)": "265e283e",
        "initialize(address,address,address,uint256)": "cf756fdf",
        "isAllowAllExecutor()": "a567d8e2",
        "limitOrders(address,uint256)": "2bca0e6a",
        "limitOrdersIndex(address)": "866d8f43",
        "minExecutionFee()": "63ae2103",
        "orderExecutors(address)": "0f108862",
        "owner()": "8da5cb5b",
        "pyth()": "f98d06f0",
        "renounceOwnership()": "715018a6",
        "setMinExecutionFee(uint256)": "fc2cee62",
        "setOrderExecutor(address,bool)": "042a4083",
        "setPyth(address)": "ee22fd6f",
        "setTradeService(address)": "30d8304e",
        "tradeService()": "d1d91a38",
        "transferOwnership(address)": "f2fde38b",
        "updateOrder(uint8,uint256,int256,uint256,bool,bool,address)": "89678bed",
        "weth()": "3fc8cef3"
    },
    "gasEstimates": {
        "creation": {
            "codeDepositCost": "2553000",
            "executionCost": "32347",
            "totalCost": "2585347"
        },
        "external": {
            "cancelOrder(uint8,uint256)": "infinite",
            "createOrder(uint8,uint256,int256,uint256,uint256,bool,uint256,bool,address)": "infinite",
            "executeOrder(address,uint8,uint256,address,bytes32[],bytes32[],uint256,bytes32)": "infinite",
            "initialize(address,address,address,uint256)": "infinite",
            "isAllowAllExecutor()": "2344",
            "limitOrders(address,uint256)": "17796",
            "limitOrdersIndex(address)": "2602",
            "minExecutionFee()": "2340",
            "orderExecutors(address)": "2560",
            "owner()": "2354",
            "pyth()": "2425",
            "renounceOwnership()": "infinite",
            "setMinExecutionFee(uint256)": "28061",
            "setOrderExecutor(address,bool)": "infinite",
            "setPyth(address)": "30269",
            "setTradeService(address)": "infinite",
            "tradeService()": "2359",
            "transferOwnership(address)": "infinite",
            "updateOrder(uint8,uint256,int256,uint256,bool,bool,address)": "infinite",
            "weth()": "2360"
        },
        "internal": {
            "_getPositionId(address,uint256)": "infinite",
            "_getSubAccount(address,uint8)": "infinite",
            "_min(uint256,uint256)": "61",
            "_transferInETH()": "infinite",
            "_transferOutETH(uint256,address)": "infinite",
            "_validateCreateOrderPrice(bool,uint256,uint256,int256,bool)": "infinite",
            "_validatePositionOrderPrice(bool,uint256,uint256,uint256,int256,bool,bool)": "infinite"
        }
    }
}